{
  "_format": "hh-sol-artifact-1",
  "contractName": "WatchNFT",
  "sourceName": "contracts/WatchNFT.sol",
  "abi": [
    {
      "inputs": [],
      "stateMutability": "nonpayable",
      "type": "constructor"
    },
    {
      "anonymous": false,
      "inputs": [
        {
          "indexed": true,
          "internalType": "address",
          "name": "owner",
          "type": "address"
        },
        {
          "indexed": true,
          "internalType": "address",
          "name": "approved",
          "type": "address"
        },
        {
          "indexed": true,
          "internalType": "uint256",
          "name": "tokenId",
          "type": "uint256"
        }
      ],
      "name": "Approval",
      "type": "event"
    },
    {
      "anonymous": false,
      "inputs": [
        {
          "indexed": true,
          "internalType": "address",
          "name": "owner",
          "type": "address"
        },
        {
          "indexed": true,
          "internalType": "address",
          "name": "operator",
          "type": "address"
        },
        {
          "indexed": false,
          "internalType": "bool",
          "name": "approved",
          "type": "bool"
        }
      ],
      "name": "ApprovalForAll",
      "type": "event"
    },
    {
      "anonymous": false,
      "inputs": [
        {
          "indexed": true,
          "internalType": "address",
          "name": "previousOwner",
          "type": "address"
        },
        {
          "indexed": true,
          "internalType": "address",
          "name": "newOwner",
          "type": "address"
        }
      ],
      "name": "OwnershipTransferred",
      "type": "event"
    },
    {
      "anonymous": false,
      "inputs": [
        {
          "indexed": true,
          "internalType": "address",
          "name": "from",
          "type": "address"
        },
        {
          "indexed": true,
          "internalType": "address",
          "name": "to",
          "type": "address"
        },
        {
          "indexed": true,
          "internalType": "uint256",
          "name": "tokenId",
          "type": "uint256"
        }
      ],
      "name": "Transfer",
      "type": "event"
    },
    {
      "inputs": [
        {
          "internalType": "address",
          "name": "to",
          "type": "address"
        },
        {
          "internalType": "uint256",
          "name": "tokenId",
          "type": "uint256"
        }
      ],
      "name": "approve",
      "outputs": [],
      "stateMutability": "nonpayable",
      "type": "function"
    },
    {
      "inputs": [
        {
          "internalType": "address",
          "name": "owner",
          "type": "address"
        }
      ],
      "name": "balanceOf",
      "outputs": [
        {
          "internalType": "uint256",
          "name": "",
          "type": "uint256"
        }
      ],
      "stateMutability": "view",
      "type": "function"
    },
    {
      "inputs": [
        {
          "internalType": "uint256",
          "name": "tokenId",
          "type": "uint256"
        }
      ],
      "name": "getApproved",
      "outputs": [
        {
          "internalType": "address",
          "name": "",
          "type": "address"
        }
      ],
      "stateMutability": "view",
      "type": "function"
    },
    {
      "inputs": [
        {
          "internalType": "address",
          "name": "owner",
          "type": "address"
        },
        {
          "internalType": "address",
          "name": "operator",
          "type": "address"
        }
      ],
      "name": "isApprovedForAll",
      "outputs": [
        {
          "internalType": "bool",
          "name": "",
          "type": "bool"
        }
      ],
      "stateMutability": "view",
      "type": "function"
    },
    {
      "inputs": [
        {
          "internalType": "address",
          "name": "",
          "type": "address"
        }
      ],
      "name": "isNftOwner",
      "outputs": [
        {
          "internalType": "bool",
          "name": "",
          "type": "bool"
        }
      ],
      "stateMutability": "view",
      "type": "function"
    },
    {
      "inputs": [
        {
          "internalType": "address",
          "name": "to",
          "type": "address"
        },
        {
          "internalType": "address",
          "name": "from",
          "type": "address"
        },
        {
          "internalType": "uint256",
          "name": "tokenId",
          "type": "uint256"
        }
      ],
      "name": "makeTransfer",
      "outputs": [],
      "stateMutability": "nonpayable",
      "type": "function"
    },
    {
      "inputs": [],
      "name": "name",
      "outputs": [
        {
          "internalType": "string",
          "name": "",
          "type": "string"
        }
      ],
      "stateMutability": "view",
      "type": "function"
    },
    {
      "inputs": [],
      "name": "owner",
      "outputs": [
        {
          "internalType": "address",
          "name": "",
          "type": "address"
        }
      ],
      "stateMutability": "view",
      "type": "function"
    },
    {
      "inputs": [
        {
          "internalType": "uint256",
          "name": "tokenId",
          "type": "uint256"
        }
      ],
      "name": "ownerOf",
      "outputs": [
        {
          "internalType": "address",
          "name": "",
          "type": "address"
        }
      ],
      "stateMutability": "view",
      "type": "function"
    },
    {
      "inputs": [],
      "name": "owners",
      "outputs": [
        {
          "internalType": "uint256",
          "name": "",
          "type": "uint256"
        }
      ],
      "stateMutability": "view",
      "type": "function"
    },
    {
      "inputs": [],
      "name": "renounceOwnership",
      "outputs": [],
      "stateMutability": "nonpayable",
      "type": "function"
    },
    {
      "inputs": [
        {
          "internalType": "address",
          "name": "to",
          "type": "address"
        },
        {
          "internalType": "string",
          "name": "uri",
          "type": "string"
        }
      ],
      "name": "safeMint",
      "outputs": [],
      "stateMutability": "nonpayable",
      "type": "function"
    },
    {
      "inputs": [
        {
          "internalType": "address",
          "name": "from",
          "type": "address"
        },
        {
          "internalType": "address",
          "name": "to",
          "type": "address"
        },
        {
          "internalType": "uint256",
          "name": "tokenId",
          "type": "uint256"
        }
      ],
      "name": "safeTransferFrom",
      "outputs": [],
      "stateMutability": "nonpayable",
      "type": "function"
    },
    {
      "inputs": [
        {
          "internalType": "address",
          "name": "from",
          "type": "address"
        },
        {
          "internalType": "address",
          "name": "to",
          "type": "address"
        },
        {
          "internalType": "uint256",
          "name": "tokenId",
          "type": "uint256"
        },
        {
          "internalType": "bytes",
          "name": "_data",
          "type": "bytes"
        }
      ],
      "name": "safeTransferFrom",
      "outputs": [],
      "stateMutability": "nonpayable",
      "type": "function"
    },
    {
      "inputs": [
        {
          "internalType": "address",
          "name": "operator",
          "type": "address"
        },
        {
          "internalType": "bool",
          "name": "approved",
          "type": "bool"
        }
      ],
      "name": "setApprovalForAll",
      "outputs": [],
      "stateMutability": "nonpayable",
      "type": "function"
    },
    {
      "inputs": [
        {
          "internalType": "bytes4",
          "name": "interfaceId",
          "type": "bytes4"
        }
      ],
      "name": "supportsInterface",
      "outputs": [
        {
          "internalType": "bool",
          "name": "",
          "type": "bool"
        }
      ],
      "stateMutability": "view",
      "type": "function"
    },
    {
      "inputs": [],
      "name": "symbol",
      "outputs": [
        {
          "internalType": "string",
          "name": "",
          "type": "string"
        }
      ],
      "stateMutability": "view",
      "type": "function"
    },
    {
      "inputs": [
        {
          "internalType": "uint256",
          "name": "index",
          "type": "uint256"
        }
      ],
      "name": "tokenByIndex",
      "outputs": [
        {
          "internalType": "uint256",
          "name": "",
          "type": "uint256"
        }
      ],
      "stateMutability": "view",
      "type": "function"
    },
    {
      "inputs": [
        {
          "internalType": "address",
          "name": "owner",
          "type": "address"
        },
        {
          "internalType": "uint256",
          "name": "index",
          "type": "uint256"
        }
      ],
      "name": "tokenOfOwnerByIndex",
      "outputs": [
        {
          "internalType": "uint256",
          "name": "",
          "type": "uint256"
        }
      ],
      "stateMutability": "view",
      "type": "function"
    },
    {
      "inputs": [
        {
          "internalType": "uint256",
          "name": "tokenId",
          "type": "uint256"
        }
      ],
      "name": "tokenURI",
      "outputs": [
        {
          "internalType": "string",
          "name": "",
          "type": "string"
        }
      ],
      "stateMutability": "view",
      "type": "function"
    },
    {
      "inputs": [],
      "name": "totalSupply",
      "outputs": [
        {
          "internalType": "uint256",
          "name": "",
          "type": "uint256"
        }
      ],
      "stateMutability": "view",
      "type": "function"
    },
    {
      "inputs": [
        {
          "internalType": "address",
          "name": "from",
          "type": "address"
        },
        {
          "internalType": "address",
          "name": "to",
          "type": "address"
        },
        {
          "internalType": "uint256",
          "name": "tokenId",
          "type": "uint256"
        }
      ],
      "name": "transferFrom",
      "outputs": [],
      "stateMutability": "nonpayable",
      "type": "function"
    },
    {
      "inputs": [
        {
          "internalType": "address",
          "name": "newOwner",
          "type": "address"
        }
      ],
      "name": "transferOwnership",
      "outputs": [],
      "stateMutability": "nonpayable",
      "type": "function"
    }
  ],
  "bytecode": "0x60806040526000600e553480156200001657600080fd5b506040518060400160405280600981526020017f5761746368204e465400000000000000000000000000000000000000000000008152506040518060400160405280600481526020017f574e46540000000000000000000000000000000000000000000000000000000081525081600090805190602001906200009b929190620001ab565b508060019080519060200190620000b4929190620001ab565b505050620000d7620000cb620000dd60201b60201c565b620000e560201b60201c565b620002c0565b600033905090565b6000600b60009054906101000a900473ffffffffffffffffffffffffffffffffffffffff16905081600b60006101000a81548173ffffffffffffffffffffffffffffffffffffffff021916908373ffffffffffffffffffffffffffffffffffffffff1602179055508173ffffffffffffffffffffffffffffffffffffffff168173ffffffffffffffffffffffffffffffffffffffff167f8be0079c531659141344cd1fd0a4f28419497f9722a3daafe3b4186f6b6457e060405160405180910390a35050565b828054620001b9906200025b565b90600052602060002090601f016020900481019282620001dd576000855562000229565b82601f10620001f857805160ff191683800117855562000229565b8280016001018555821562000229579182015b82811115620002285782518255916020019190600101906200020b565b5b5090506200023891906200023c565b5090565b5b80821115620002575760008160009055506001016200023d565b5090565b600060028204905060018216806200027457607f821691505b602082108114156200028b576200028a62000291565b5b50919050565b7f4e487b7100000000000000000000000000000000000000000000000000000000600052602260045260246000fd5b61399a80620002d06000396000f3fe608060405234801561001057600080fd5b506004361061014d5760003560e01c806370a08231116100c3578063affe39c11161007c578063affe39c1146103b0578063b88d4fde146103ce578063c87b56dd146103ea578063d204c45e1461041a578063e985e9c514610436578063f2fde38b146104665761014d565b806370a0823114610302578063715018a6146103325780638da5cb5b1461033c57806395d89b411461035a578063a22cb46514610378578063a6e49154146103945761014d565b806323b872dd1161011557806323b872dd1461020a5780632f745c59146102265780633de435521461025657806342842e0e146102865780634f6ccce7146102a25780636352211e146102d25761014d565b806301ffc9a71461015257806306fdde0314610182578063081812fc146101a0578063095ea7b3146101d057806318160ddd146101ec575b600080fd5b61016c60048036038101906101679190612825565b610482565b6040516101799190612cb7565b60405180910390f35b61018a610494565b6040516101979190612cd2565b60405180910390f35b6101ba60048036038101906101b59190612877565b610526565b6040516101c79190612c50565b60405180910390f35b6101ea60048036038101906101e591906127e9565b6105ab565b005b6101f46106c3565b6040516102019190612f74565b60405180910390f35b610224600480360381019061021f919061268f565b6106d0565b005b610240600480360381019061023b91906127e9565b610730565b60405161024d9190612f74565b60405180910390f35b610270600480360381019061026b919061262a565b6107d5565b60405161027d9190612cb7565b60405180910390f35b6102a0600480360381019061029b919061268f565b6107f5565b005b6102bc60048036038101906102b79190612877565b610815565b6040516102c99190612f74565b60405180910390f35b6102ec60048036038101906102e79190612877565b6108ac565b6040516102f99190612c50565b60405180910390f35b61031c6004803603810190610317919061262a565b61095e565b6040516103299190612f74565b60405180910390f35b61033a610a16565b005b610344610a9e565b6040516103519190612c50565b60405180910390f35b610362610ac8565b60405161036f9190612cd2565b60405180910390f35b610392600480360381019061038d9190612759565b610b5a565b005b6103ae60048036038101906103a9919061268f565b610b70565b005b6103b8610c48565b6040516103c59190612f74565b60405180910390f35b6103e860048036038101906103e391906126de565b610c4e565b005b61040460048036038101906103ff9190612877565b610cb0565b6040516104119190612cd2565b60405180910390f35b610434600480360381019061042f9190612795565b610cc2565b005b610450600480360381019061044b9190612653565b610cf3565b60405161045d9190612cb7565b60405180910390f35b610480600480360381019061047b919061262a565b610d87565b005b600061048d82610e7f565b9050919050565b6060600080546104a3906131ca565b80601f01602080910402602001604051908101604052809291908181526020018280546104cf906131ca565b801561051c5780601f106104f15761010080835404028352916020019161051c565b820191906000526020600020905b8154815290600101906020018083116104ff57829003601f168201915b5050505050905090565b600061053182610ef9565b610570576040517f08c379a000000000000000000000000000000000000000000000000000000000815260040161056790612eb4565b60405180910390fd5b6004600083815260200190815260200160002060009054906101000a900473ffffffffffffffffffffffffffffffffffffffff169050919050565b60006105b6826108ac565b90508073ffffffffffffffffffffffffffffffffffffffff168373ffffffffffffffffffffffffffffffffffffffff161415610627576040517f08c379a000000000000000000000000000000000000000000000000000000000815260040161061e90612f14565b60405180910390fd5b8073ffffffffffffffffffffffffffffffffffffffff16610646610f65565b73ffffffffffffffffffffffffffffffffffffffff16148061067557506106748161066f610f65565b610cf3565b5b6106b4576040517f08c379a00000000000000000000000000000000000000000000000000000000081526004016106ab90612df4565b60405180910390fd5b6106be8383610f6d565b505050565b6000600880549050905090565b6106e16106db610f65565b82611026565b610720576040517f08c379a000000000000000000000000000000000000000000000000000000000815260040161071790612f34565b60405180910390fd5b61072b838383611104565b505050565b600061073b8361095e565b821061077c576040517f08c379a000000000000000000000000000000000000000000000000000000000815260040161077390612cf4565b60405180910390fd5b600660008473ffffffffffffffffffffffffffffffffffffffff1673ffffffffffffffffffffffffffffffffffffffff168152602001908152602001600020600083815260200190815260200160002054905092915050565b600d6020528060005260406000206000915054906101000a900460ff1681565b61081083838360405180602001604052806000815250610c4e565b505050565b600061081f6106c3565b8210610860576040517f08c379a000000000000000000000000000000000000000000000000000000000815260040161085790612f54565b60405180910390fd5b6008828154811061089a577f4e487b7100000000000000000000000000000000000000000000000000000000600052603260045260246000fd5b90600052602060002001549050919050565b6000806002600084815260200190815260200160002060009054906101000a900473ffffffffffffffffffffffffffffffffffffffff169050600073ffffffffffffffffffffffffffffffffffffffff168173ffffffffffffffffffffffffffffffffffffffff161415610955576040517f08c379a000000000000000000000000000000000000000000000000000000000815260040161094c90612e34565b60405180910390fd5b80915050919050565b60008073ffffffffffffffffffffffffffffffffffffffff168273ffffffffffffffffffffffffffffffffffffffff1614156109cf576040517f08c379a00000000000000000000000000000000000000000000000000000000081526004016109c690612e14565b60405180910390fd5b600360008373ffffffffffffffffffffffffffffffffffffffff1673ffffffffffffffffffffffffffffffffffffffff168152602001908152602001600020549050919050565b610a1e610f65565b73ffffffffffffffffffffffffffffffffffffffff16610a3c610a9e565b73ffffffffffffffffffffffffffffffffffffffff1614610a92576040517f08c379a0000000000000000000000000000000000000000000000000000000008152600401610a8990612ed4565b60405180910390fd5b610a9c600061136b565b565b6000600b60009054906101000a900473ffffffffffffffffffffffffffffffffffffffff16905090565b606060018054610ad7906131ca565b80601f0160208091040260200160405190810160405280929190818152602001828054610b03906131ca565b8015610b505780601f10610b2557610100808354040283529160200191610b50565b820191906000526020600020905b815481529060010190602001808311610b3357829003601f168201915b5050505050905090565b610b6c610b65610f65565b8383611431565b5050565b610b7b8383836107f5565b6000600d60003373ffffffffffffffffffffffffffffffffffffffff1673ffffffffffffffffffffffffffffffffffffffff16815260200190815260200160002060009054906101000a900460ff16905080610c42576001600d60003373ffffffffffffffffffffffffffffffffffffffff1673ffffffffffffffffffffffffffffffffffffffff16815260200190815260200160002060006101000a81548160ff021916908315150217905550600e6000815480929190610c3c9061322d565b91905055505b50505050565b600e5481565b610c5f610c59610f65565b83611026565b610c9e576040517f08c379a0000000000000000000000000000000000000000000000000000000008152600401610c9590612f34565b60405180910390fd5b610caa8484848461159e565b50505050565b6060610cbb826115fa565b9050919050565b6000610cce600c61174c565b9050610cda600c61175a565b610ce48382611770565b610cee818361178e565b505050565b6000600560008473ffffffffffffffffffffffffffffffffffffffff1673ffffffffffffffffffffffffffffffffffffffff16815260200190815260200160002060008373ffffffffffffffffffffffffffffffffffffffff1673ffffffffffffffffffffffffffffffffffffffff16815260200190815260200160002060009054906101000a900460ff16905092915050565b610d8f610f65565b73ffffffffffffffffffffffffffffffffffffffff16610dad610a9e565b73ffffffffffffffffffffffffffffffffffffffff1614610e03576040517f08c379a0000000000000000000000000000000000000000000000000000000008152600401610dfa90612ed4565b60405180910390fd5b600073ffffffffffffffffffffffffffffffffffffffff168173ffffffffffffffffffffffffffffffffffffffff161415610e73576040517f08c379a0000000000000000000000000000000000000000000000000000000008152600401610e6a90612d34565b60405180910390fd5b610e7c8161136b565b50565b60007f780e9d63000000000000000000000000000000000000000000000000000000007bffffffffffffffffffffffffffffffffffffffffffffffffffffffff1916827bffffffffffffffffffffffffffffffffffffffffffffffffffffffff19161480610ef25750610ef182611802565b5b9050919050565b60008073ffffffffffffffffffffffffffffffffffffffff166002600084815260200190815260200160002060009054906101000a900473ffffffffffffffffffffffffffffffffffffffff1673ffffffffffffffffffffffffffffffffffffffff1614159050919050565b600033905090565b816004600083815260200190815260200160002060006101000a81548173ffffffffffffffffffffffffffffffffffffffff021916908373ffffffffffffffffffffffffffffffffffffffff160217905550808273ffffffffffffffffffffffffffffffffffffffff16610fe0836108ac565b73ffffffffffffffffffffffffffffffffffffffff167f8c5be1e5ebec7d5bd14f71427d1e84f3dd0314c0f7b2291e5b200ac8c7c3b92560405160405180910390a45050565b600061103182610ef9565b611070576040517f08c379a000000000000000000000000000000000000000000000000000000000815260040161106790612dd4565b60405180910390fd5b600061107b836108ac565b90508073ffffffffffffffffffffffffffffffffffffffff168473ffffffffffffffffffffffffffffffffffffffff1614806110ea57508373ffffffffffffffffffffffffffffffffffffffff166110d284610526565b73ffffffffffffffffffffffffffffffffffffffff16145b806110fb57506110fa8185610cf3565b5b91505092915050565b8273ffffffffffffffffffffffffffffffffffffffff16611124826108ac565b73ffffffffffffffffffffffffffffffffffffffff161461117a576040517f08c379a000000000000000000000000000000000000000000000000000000000815260040161117190612d54565b60405180910390fd5b600073ffffffffffffffffffffffffffffffffffffffff168273ffffffffffffffffffffffffffffffffffffffff1614156111ea576040517f08c379a00000000000000000000000000000000000000000000000000000000081526004016111e190612d94565b60405180910390fd5b6111f58383836118e4565b611200600082610f6d565b6001600360008573ffffffffffffffffffffffffffffffffffffffff1673ffffffffffffffffffffffffffffffffffffffff168152602001908152602001600020600082825461125091906130e0565b925050819055506001600360008473ffffffffffffffffffffffffffffffffffffffff1673ffffffffffffffffffffffffffffffffffffffff16815260200190815260200160002060008282546112a79190613059565b92505081905550816002600083815260200190815260200160002060006101000a81548173ffffffffffffffffffffffffffffffffffffffff021916908373ffffffffffffffffffffffffffffffffffffffff160217905550808273ffffffffffffffffffffffffffffffffffffffff168473ffffffffffffffffffffffffffffffffffffffff167fddf252ad1be2c89b69c2b068fc378daa952ba7f163c4a11628f55a4df523b3ef60405160405180910390a46113668383836118f4565b505050565b6000600b60009054906101000a900473ffffffffffffffffffffffffffffffffffffffff16905081600b60006101000a81548173ffffffffffffffffffffffffffffffffffffffff021916908373ffffffffffffffffffffffffffffffffffffffff1602179055508173ffffffffffffffffffffffffffffffffffffffff168173ffffffffffffffffffffffffffffffffffffffff167f8be0079c531659141344cd1fd0a4f28419497f9722a3daafe3b4186f6b6457e060405160405180910390a35050565b8173ffffffffffffffffffffffffffffffffffffffff168373ffffffffffffffffffffffffffffffffffffffff1614156114a0576040517f08c379a000000000000000000000000000000000000000000000000000000000815260040161149790612db4565b60405180910390fd5b80600560008573ffffffffffffffffffffffffffffffffffffffff1673ffffffffffffffffffffffffffffffffffffffff16815260200190815260200160002060008473ffffffffffffffffffffffffffffffffffffffff1673ffffffffffffffffffffffffffffffffffffffff16815260200190815260200160002060006101000a81548160ff0219169083151502179055508173ffffffffffffffffffffffffffffffffffffffff168373ffffffffffffffffffffffffffffffffffffffff167f17307eab39ab6107e8899845ad3d59bd9653f200f220920489ca2b5937696c31836040516115919190612cb7565b60405180910390a3505050565b6115a9848484611104565b6115b5848484846118f9565b6115f4576040517f08c379a00000000000000000000000000000000000000000000000000000000081526004016115eb90612d14565b60405180910390fd5b50505050565b606061160582610ef9565b611644576040517f08c379a000000000000000000000000000000000000000000000000000000000815260040161163b90612e94565b60405180910390fd5b6000600a60008481526020019081526020016000208054611664906131ca565b80601f0160208091040260200160405190810160405280929190818152602001828054611690906131ca565b80156116dd5780601f106116b2576101008083540402835291602001916116dd565b820191906000526020600020905b8154815290600101906020018083116116c057829003601f168201915b5050505050905060006116ee611a90565b9050600081511415611704578192505050611747565b600082511115611739578082604051602001611721929190612c2c565b60405160208183030381529060405292505050611747565b61174284611aa7565b925050505b919050565b600081600001549050919050565b6001816000016000828254019250508190555050565b61178a828260405180602001604052806000815250611b4e565b5050565b61179782610ef9565b6117d6576040517f08c379a00000000000000000000000000000000000000000000000000000000081526004016117cd90612e54565b60405180910390fd5b80600a600084815260200190815260200160002090805190602001906117fd92919061244e565b505050565b60007f80ac58cd000000000000000000000000000000000000000000000000000000007bffffffffffffffffffffffffffffffffffffffffffffffffffffffff1916827bffffffffffffffffffffffffffffffffffffffffffffffffffffffff191614806118cd57507f5b5e139f000000000000000000000000000000000000000000000000000000007bffffffffffffffffffffffffffffffffffffffffffffffffffffffff1916827bffffffffffffffffffffffffffffffffffffffffffffffffffffffff1916145b806118dd57506118dc82611ba9565b5b9050919050565b6118ef838383611c13565b505050565b505050565b600061191a8473ffffffffffffffffffffffffffffffffffffffff16611d27565b15611a83578373ffffffffffffffffffffffffffffffffffffffff1663150b7a02611943610f65565b8786866040518563ffffffff1660e01b81526004016119659493929190612c6b565b602060405180830381600087803b15801561197f57600080fd5b505af19250505080156119b057506040513d601f19601f820116820180604052508101906119ad919061284e565b60015b611a33573d80600081146119e0576040519150601f19603f3d011682016040523d82523d6000602084013e6119e5565b606091505b50600081511415611a2b576040517f08c379a0000000000000000000000000000000000000000000000000000000008152600401611a2290612d14565b60405180910390fd5b805181602001fd5b63150b7a0260e01b7bffffffffffffffffffffffffffffffffffffffffffffffffffffffff1916817bffffffffffffffffffffffffffffffffffffffffffffffffffffffff191614915050611a88565b600190505b949350505050565b606060405180602001604052806000815250905090565b6060611ab282610ef9565b611af1576040517f08c379a0000000000000000000000000000000000000000000000000000000008152600401611ae890612ef4565b60405180910390fd5b6000611afb611a90565b90506000815111611b1b5760405180602001604052806000815250611b46565b80611b2584611d4a565b604051602001611b36929190612c2c565b6040516020818303038152906040525b915050919050565b611b588383611ef7565b611b6560008484846118f9565b611ba4576040517f08c379a0000000000000000000000000000000000000000000000000000000008152600401611b9b90612d14565b60405180910390fd5b505050565b60007f01ffc9a7000000000000000000000000000000000000000000000000000000007bffffffffffffffffffffffffffffffffffffffffffffffffffffffff1916827bffffffffffffffffffffffffffffffffffffffffffffffffffffffff1916149050919050565b611c1e8383836120d1565b600073ffffffffffffffffffffffffffffffffffffffff168373ffffffffffffffffffffffffffffffffffffffff161415611c6157611c5c816120d6565b611ca0565b8173ffffffffffffffffffffffffffffffffffffffff168373ffffffffffffffffffffffffffffffffffffffff1614611c9f57611c9e838261211f565b5b5b600073ffffffffffffffffffffffffffffffffffffffff168273ffffffffffffffffffffffffffffffffffffffff161415611ce357611cde8161228c565b611d22565b8273ffffffffffffffffffffffffffffffffffffffff168273ffffffffffffffffffffffffffffffffffffffff1614611d2157611d2082826123cf565b5b5b505050565b6000808273ffffffffffffffffffffffffffffffffffffffff163b119050919050565b60606000821415611d92576040518060400160405280600181526020017f30000000000000000000000000000000000000000000000000000000000000008152509050611ef2565b600082905060005b60008214611dc4578080611dad9061322d565b915050600a82611dbd91906130af565b9150611d9a565b60008167ffffffffffffffff811115611e06577f4e487b7100000000000000000000000000000000000000000000000000000000600052604160045260246000fd5b6040519080825280601f01601f191660200182016040528015611e385781602001600182028036833780820191505090505b5090505b60008514611eeb57600182611e5191906130e0565b9150600a85611e609190613276565b6030611e6c9190613059565b60f81b818381518110611ea8577f4e487b7100000000000000000000000000000000000000000000000000000000600052603260045260246000fd5b60200101907effffffffffffffffffffffffffffffffffffffffffffffffffffffffffffff1916908160001a905350600a85611ee491906130af565b9450611e3c565b8093505050505b919050565b600073ffffffffffffffffffffffffffffffffffffffff168273ffffffffffffffffffffffffffffffffffffffff161415611f67576040517f08c379a0000000000000000000000000000000000000000000000000000000008152600401611f5e90612e74565b60405180910390fd5b611f7081610ef9565b15611fb0576040517f08c379a0000000000000000000000000000000000000000000000000000000008152600401611fa790612d74565b60405180910390fd5b611fbc600083836118e4565b6001600360008473ffffffffffffffffffffffffffffffffffffffff1673ffffffffffffffffffffffffffffffffffffffff168152602001908152602001600020600082825461200c9190613059565b92505081905550816002600083815260200190815260200160002060006101000a81548173ffffffffffffffffffffffffffffffffffffffff021916908373ffffffffffffffffffffffffffffffffffffffff160217905550808273ffffffffffffffffffffffffffffffffffffffff16600073ffffffffffffffffffffffffffffffffffffffff167fddf252ad1be2c89b69c2b068fc378daa952ba7f163c4a11628f55a4df523b3ef60405160405180910390a46120cd600083836118f4565b5050565b505050565b6008805490506009600083815260200190815260200160002081905550600881908060018154018082558091505060019003906000526020600020016000909190919091505550565b6000600161212c8461095e565b61213691906130e0565b905060006007600084815260200190815260200160002054905081811461221b576000600660008673ffffffffffffffffffffffffffffffffffffffff1673ffffffffffffffffffffffffffffffffffffffff168152602001908152602001600020600084815260200190815260200160002054905080600660008773ffffffffffffffffffffffffffffffffffffffff1673ffffffffffffffffffffffffffffffffffffffff168152602001908152602001600020600084815260200190815260200160002081905550816007600083815260200190815260200160002081905550505b6007600084815260200190815260200160002060009055600660008573ffffffffffffffffffffffffffffffffffffffff1673ffffffffffffffffffffffffffffffffffffffff16815260200190815260200160002060008381526020019081526020016000206000905550505050565b600060016008805490506122a091906130e0565b90506000600960008481526020019081526020016000205490506000600883815481106122f6577f4e487b7100000000000000000000000000000000000000000000000000000000600052603260045260246000fd5b90600052602060002001549050806008838154811061233e577f4e487b7100000000000000000000000000000000000000000000000000000000600052603260045260246000fd5b9060005260206000200181905550816009600083815260200190815260200160002081905550600960008581526020019081526020016000206000905560088054806123b3577f4e487b7100000000000000000000000000000000000000000000000000000000600052603160045260246000fd5b6001900381819060005260206000200160009055905550505050565b60006123da8361095e565b905081600660008573ffffffffffffffffffffffffffffffffffffffff1673ffffffffffffffffffffffffffffffffffffffff168152602001908152602001600020600083815260200190815260200160002081905550806007600084815260200190815260200160002081905550505050565b82805461245a906131ca565b90600052602060002090601f01602090048101928261247c57600085556124c3565b82601f1061249557805160ff19168380011785556124c3565b828001600101855582156124c3579182015b828111156124c25782518255916020019190600101906124a7565b5b5090506124d091906124d4565b5090565b5b808211156124ed5760008160009055506001016124d5565b5090565b60006125046124ff84612fb4565b612f8f565b90508281526020810184848401111561251c57600080fd5b612527848285613188565b509392505050565b600061254261253d84612fe5565b612f8f565b90508281526020810184848401111561255a57600080fd5b612565848285613188565b509392505050565b60008135905061257c81613908565b92915050565b6000813590506125918161391f565b92915050565b6000813590506125a681613936565b92915050565b6000815190506125bb81613936565b92915050565b600082601f8301126125d257600080fd5b81356125e28482602086016124f1565b91505092915050565b600082601f8301126125fc57600080fd5b813561260c84826020860161252f565b91505092915050565b6000813590506126248161394d565b92915050565b60006020828403121561263c57600080fd5b600061264a8482850161256d565b91505092915050565b6000806040838503121561266657600080fd5b60006126748582860161256d565b92505060206126858582860161256d565b9150509250929050565b6000806000606084860312156126a457600080fd5b60006126b28682870161256d565b93505060206126c38682870161256d565b92505060406126d486828701612615565b9150509250925092565b600080600080608085870312156126f457600080fd5b60006127028782880161256d565b94505060206127138782880161256d565b935050604061272487828801612615565b925050606085013567ffffffffffffffff81111561274157600080fd5b61274d878288016125c1565b91505092959194509250565b6000806040838503121561276c57600080fd5b600061277a8582860161256d565b925050602061278b85828601612582565b9150509250929050565b600080604083850312156127a857600080fd5b60006127b68582860161256d565b925050602083013567ffffffffffffffff8111156127d357600080fd5b6127df858286016125eb565b9150509250929050565b600080604083850312156127fc57600080fd5b600061280a8582860161256d565b925050602061281b85828601612615565b9150509250929050565b60006020828403121561283757600080fd5b600061284584828501612597565b91505092915050565b60006020828403121561286057600080fd5b600061286e848285016125ac565b91505092915050565b60006020828403121561288957600080fd5b600061289784828501612615565b91505092915050565b6128a981613114565b82525050565b6128b881613126565b82525050565b60006128c982613016565b6128d3818561302c565b93506128e3818560208601613197565b6128ec81613363565b840191505092915050565b600061290282613021565b61290c818561303d565b935061291c818560208601613197565b61292581613363565b840191505092915050565b600061293b82613021565b612945818561304e565b9350612955818560208601613197565b80840191505092915050565b600061296e602b8361303d565b915061297982613374565b604082019050919050565b600061299160328361303d565b915061299c826133c3565b604082019050919050565b60006129b460268361303d565b91506129bf82613412565b604082019050919050565b60006129d760258361303d565b91506129e282613461565b604082019050919050565b60006129fa601c8361303d565b9150612a05826134b0565b602082019050919050565b6000612a1d60248361303d565b9150612a28826134d9565b604082019050919050565b6000612a4060198361303d565b9150612a4b82613528565b602082019050919050565b6000612a63602c8361303d565b9150612a6e82613551565b604082019050919050565b6000612a8660388361303d565b9150612a91826135a0565b604082019050919050565b6000612aa9602a8361303d565b9150612ab4826135ef565b604082019050919050565b6000612acc60298361303d565b9150612ad78261363e565b604082019050919050565b6000612aef602e8361303d565b9150612afa8261368d565b604082019050919050565b6000612b1260208361303d565b9150612b1d826136dc565b602082019050919050565b6000612b3560318361303d565b9150612b4082613705565b604082019050919050565b6000612b58602c8361303d565b9150612b6382613754565b604082019050919050565b6000612b7b60208361303d565b9150612b86826137a3565b602082019050919050565b6000612b9e602f8361303d565b9150612ba9826137cc565b604082019050919050565b6000612bc160218361303d565b9150612bcc8261381b565b604082019050919050565b6000612be460318361303d565b9150612bef8261386a565b604082019050919050565b6000612c07602c8361303d565b9150612c12826138b9565b604082019050919050565b612c268161317e565b82525050565b6000612c388285612930565b9150612c448284612930565b91508190509392505050565b6000602082019050612c6560008301846128a0565b92915050565b6000608082019050612c8060008301876128a0565b612c8d60208301866128a0565b612c9a6040830185612c1d565b8181036060830152612cac81846128be565b905095945050505050565b6000602082019050612ccc60008301846128af565b92915050565b60006020820190508181036000830152612cec81846128f7565b905092915050565b60006020820190508181036000830152612d0d81612961565b9050919050565b60006020820190508181036000830152612d2d81612984565b9050919050565b60006020820190508181036000830152612d4d816129a7565b9050919050565b60006020820190508181036000830152612d6d816129ca565b9050919050565b60006020820190508181036000830152612d8d816129ed565b9050919050565b60006020820190508181036000830152612dad81612a10565b9050919050565b60006020820190508181036000830152612dcd81612a33565b9050919050565b60006020820190508181036000830152612ded81612a56565b9050919050565b60006020820190508181036000830152612e0d81612a79565b9050919050565b60006020820190508181036000830152612e2d81612a9c565b9050919050565b60006020820190508181036000830152612e4d81612abf565b9050919050565b60006020820190508181036000830152612e6d81612ae2565b9050919050565b60006020820190508181036000830152612e8d81612b05565b9050919050565b60006020820190508181036000830152612ead81612b28565b9050919050565b60006020820190508181036000830152612ecd81612b4b565b9050919050565b60006020820190508181036000830152612eed81612b6e565b9050919050565b60006020820190508181036000830152612f0d81612b91565b9050919050565b60006020820190508181036000830152612f2d81612bb4565b9050919050565b60006020820190508181036000830152612f4d81612bd7565b9050919050565b60006020820190508181036000830152612f6d81612bfa565b9050919050565b6000602082019050612f896000830184612c1d565b92915050565b6000612f99612faa565b9050612fa582826131fc565b919050565b6000604051905090565b600067ffffffffffffffff821115612fcf57612fce613334565b5b612fd882613363565b9050602081019050919050565b600067ffffffffffffffff82111561300057612fff613334565b5b61300982613363565b9050602081019050919050565b600081519050919050565b600081519050919050565b600082825260208201905092915050565b600082825260208201905092915050565b600081905092915050565b60006130648261317e565b915061306f8361317e565b9250827fffffffffffffffffffffffffffffffffffffffffffffffffffffffffffffffff038211156130a4576130a36132a7565b5b828201905092915050565b60006130ba8261317e565b91506130c58361317e565b9250826130d5576130d46132d6565b5b828204905092915050565b60006130eb8261317e565b91506130f68361317e565b925082821015613109576131086132a7565b5b828203905092915050565b600061311f8261315e565b9050919050565b60008115159050919050565b60007fffffffff0000000000000000000000000000000000000000000000000000000082169050919050565b600073ffffffffffffffffffffffffffffffffffffffff82169050919050565b6000819050919050565b82818337600083830152505050565b60005b838110156131b557808201518184015260208101905061319a565b838111156131c4576000848401525b50505050565b600060028204905060018216806131e257607f821691505b602082108114156131f6576131f5613305565b5b50919050565b61320582613363565b810181811067ffffffffffffffff8211171561322457613223613334565b5b80604052505050565b60006132388261317e565b91507fffffffffffffffffffffffffffffffffffffffffffffffffffffffffffffffff82141561326b5761326a6132a7565b5b600182019050919050565b60006132818261317e565b915061328c8361317e565b92508261329c5761329b6132d6565b5b828206905092915050565b7f4e487b7100000000000000000000000000000000000000000000000000000000600052601160045260246000fd5b7f4e487b7100000000000000000000000000000000000000000000000000000000600052601260045260246000fd5b7f4e487b7100000000000000000000000000000000000000000000000000000000600052602260045260246000fd5b7f4e487b7100000000000000000000000000000000000000000000000000000000600052604160045260246000fd5b6000601f19601f8301169050919050565b7f455243373231456e756d657261626c653a206f776e657220696e646578206f7560008201527f74206f6620626f756e6473000000000000000000000000000000000000000000602082015250565b7f4552433732313a207472616e7366657220746f206e6f6e20455243373231526560008201527f63656976657220696d706c656d656e7465720000000000000000000000000000602082015250565b7f4f776e61626c653a206e6577206f776e657220697320746865207a65726f206160008201527f6464726573730000000000000000000000000000000000000000000000000000602082015250565b7f4552433732313a207472616e736665722066726f6d20696e636f72726563742060008201527f6f776e6572000000000000000000000000000000000000000000000000000000602082015250565b7f4552433732313a20746f6b656e20616c7265616479206d696e74656400000000600082015250565b7f4552433732313a207472616e7366657220746f20746865207a65726f2061646460008201527f7265737300000000000000000000000000000000000000000000000000000000602082015250565b7f4552433732313a20617070726f766520746f2063616c6c657200000000000000600082015250565b7f4552433732313a206f70657261746f7220717565727920666f72206e6f6e657860008201527f697374656e7420746f6b656e0000000000000000000000000000000000000000602082015250565b7f4552433732313a20617070726f76652063616c6c6572206973206e6f74206f7760008201527f6e6572206e6f7220617070726f76656420666f7220616c6c0000000000000000602082015250565b7f4552433732313a2062616c616e636520717565727920666f7220746865207a6560008201527f726f206164647265737300000000000000000000000000000000000000000000602082015250565b7f4552433732313a206f776e657220717565727920666f72206e6f6e657869737460008201527f656e7420746f6b656e0000000000000000000000000000000000000000000000602082015250565b7f45524337323155524953746f726167653a2055524920736574206f66206e6f6e60008201527f6578697374656e7420746f6b656e000000000000000000000000000000000000602082015250565b7f4552433732313a206d696e7420746f20746865207a65726f2061646472657373600082015250565b7f45524337323155524953746f726167653a2055524920717565727920666f722060008201527f6e6f6e6578697374656e7420746f6b656e000000000000000000000000000000602082015250565b7f4552433732313a20617070726f76656420717565727920666f72206e6f6e657860008201527f697374656e7420746f6b656e0000000000000000000000000000000000000000602082015250565b7f4f776e61626c653a2063616c6c6572206973206e6f7420746865206f776e6572600082015250565b7f4552433732314d657461646174613a2055524920717565727920666f72206e6f60008201527f6e6578697374656e7420746f6b656e0000000000000000000000000000000000602082015250565b7f4552433732313a20617070726f76616c20746f2063757272656e74206f776e6560008201527f7200000000000000000000000000000000000000000000000000000000000000602082015250565b7f4552433732313a207472616e736665722063616c6c6572206973206e6f74206f60008201527f776e6572206e6f7220617070726f766564000000000000000000000000000000602082015250565b7f455243373231456e756d657261626c653a20676c6f62616c20696e646578206f60008201527f7574206f6620626f756e64730000000000000000000000000000000000000000602082015250565b61391181613114565b811461391c57600080fd5b50565b61392881613126565b811461393357600080fd5b50565b61393f81613132565b811461394a57600080fd5b50565b6139568161317e565b811461396157600080fd5b5056fea2646970667358221220bfdee63eb19b3fa2651a5839319858c954bae6a99a2b751f91eaf445a0d286c364736f6c63430008040033",
  "linkReferences": {},
  "deployedLinkReferences": {}
}