{
  "_format": "hh-sol-artifact-1",
  "contractName": "WatchNFT",
  "sourceName": "contracts/WatchNFT.sol",
  "abi": [
    {
      "inputs": [],
      "stateMutability": "nonpayable",
      "type": "constructor"
    },
    {
      "anonymous": false,
      "inputs": [
        {
          "indexed": true,
          "internalType": "address",
          "name": "owner",
          "type": "address"
        },
        {
          "indexed": true,
          "internalType": "address",
          "name": "approved",
          "type": "address"
        },
        {
          "indexed": true,
          "internalType": "uint256",
          "name": "tokenId",
          "type": "uint256"
        }
      ],
      "name": "Approval",
      "type": "event"
    },
    {
      "anonymous": false,
      "inputs": [
        {
          "indexed": true,
          "internalType": "address",
          "name": "owner",
          "type": "address"
        },
        {
          "indexed": true,
          "internalType": "address",
          "name": "operator",
          "type": "address"
        },
        {
          "indexed": false,
          "internalType": "bool",
          "name": "approved",
          "type": "bool"
        }
      ],
      "name": "ApprovalForAll",
      "type": "event"
    },
    {
      "anonymous": false,
      "inputs": [
        {
          "indexed": true,
          "internalType": "address",
          "name": "previousOwner",
          "type": "address"
        },
        {
          "indexed": true,
          "internalType": "address",
          "name": "newOwner",
          "type": "address"
        }
      ],
      "name": "OwnershipTransferred",
      "type": "event"
    },
    {
      "anonymous": false,
      "inputs": [
        {
          "indexed": true,
          "internalType": "address",
          "name": "from",
          "type": "address"
        },
        {
          "indexed": true,
          "internalType": "address",
          "name": "to",
          "type": "address"
        },
        {
          "indexed": true,
          "internalType": "uint256",
          "name": "tokenId",
          "type": "uint256"
        }
      ],
      "name": "Transfer",
      "type": "event"
    },
    {
      "inputs": [
        {
          "internalType": "address",
          "name": "to",
          "type": "address"
        },
        {
          "internalType": "uint256",
          "name": "tokenId",
          "type": "uint256"
        }
      ],
      "name": "approve",
      "outputs": [],
      "stateMutability": "nonpayable",
      "type": "function"
    },
    {
      "inputs": [
        {
          "internalType": "address",
          "name": "owner",
          "type": "address"
        }
      ],
      "name": "balanceOf",
      "outputs": [
        {
          "internalType": "uint256",
          "name": "",
          "type": "uint256"
        }
      ],
      "stateMutability": "view",
      "type": "function"
    },
    {
      "inputs": [
        {
          "internalType": "uint256",
          "name": "tokenId",
          "type": "uint256"
        }
      ],
      "name": "buyWatch",
      "outputs": [],
      "stateMutability": "payable",
      "type": "function"
    },
    {
      "inputs": [
        {
          "internalType": "uint256",
          "name": "tokenId",
          "type": "uint256"
        }
      ],
      "name": "getApproved",
      "outputs": [
        {
          "internalType": "address",
          "name": "",
          "type": "address"
        }
      ],
      "stateMutability": "view",
      "type": "function"
    },
    {
      "inputs": [],
      "name": "getOwners",
      "outputs": [
        {
          "internalType": "uint256",
          "name": "",
          "type": "uint256"
        }
      ],
      "stateMutability": "view",
      "type": "function"
    },
    {
      "inputs": [
        {
          "internalType": "uint256",
          "name": "tokenId",
          "type": "uint256"
        }
      ],
      "name": "getWatch",
      "outputs": [
        {
          "components": [
            {
              "internalType": "uint256",
              "name": "tokenId",
              "type": "uint256"
            },
            {
              "internalType": "address payable",
              "name": "seller",
              "type": "address"
            },
            {
              "internalType": "address payable",
              "name": "owner",
              "type": "address"
            },
            {
              "internalType": "uint256",
              "name": "price",
              "type": "uint256"
            },
            {
              "internalType": "bool",
              "name": "sold",
              "type": "bool"
            }
          ],
          "internalType": "struct WatchNFT.WatchItem",
          "name": "",
          "type": "tuple"
        }
      ],
      "stateMutability": "view",
      "type": "function"
    },
    {
      "inputs": [],
      "name": "getWatchLength",
      "outputs": [
        {
          "internalType": "uint256",
          "name": "",
          "type": "uint256"
        }
      ],
      "stateMutability": "view",
      "type": "function"
    },
    {
      "inputs": [
        {
          "internalType": "address",
          "name": "owner",
          "type": "address"
        },
        {
          "internalType": "address",
          "name": "operator",
          "type": "address"
        }
      ],
      "name": "isApprovedForAll",
      "outputs": [
        {
          "internalType": "bool",
          "name": "",
          "type": "bool"
        }
      ],
      "stateMutability": "view",
      "type": "function"
    },
    {
      "inputs": [
        {
          "internalType": "address",
          "name": "from",
          "type": "address"
        },
        {
          "internalType": "address",
          "name": "to",
          "type": "address"
        },
        {
          "internalType": "uint256",
          "name": "tokenId",
          "type": "uint256"
        }
      ],
      "name": "makeTransfer",
      "outputs": [],
      "stateMutability": "nonpayable",
      "type": "function"
    },
    {
      "inputs": [],
      "name": "name",
      "outputs": [
        {
          "internalType": "string",
          "name": "",
          "type": "string"
        }
      ],
      "stateMutability": "view",
      "type": "function"
    },
    {
      "inputs": [],
      "name": "owner",
      "outputs": [
        {
          "internalType": "address",
          "name": "",
          "type": "address"
        }
      ],
      "stateMutability": "view",
      "type": "function"
    },
    {
      "inputs": [
        {
          "internalType": "uint256",
          "name": "tokenId",
          "type": "uint256"
        }
      ],
      "name": "ownerOf",
      "outputs": [
        {
          "internalType": "address",
          "name": "",
          "type": "address"
        }
      ],
      "stateMutability": "view",
      "type": "function"
    },
    {
      "inputs": [],
      "name": "renounceOwnership",
      "outputs": [],
      "stateMutability": "nonpayable",
      "type": "function"
    },
    {
      "inputs": [
        {
          "internalType": "string",
          "name": "uri",
          "type": "string"
        },
        {
          "internalType": "uint256",
          "name": "price",
          "type": "uint256"
        }
      ],
      "name": "safeMint",
      "outputs": [
        {
          "internalType": "uint256",
          "name": "",
          "type": "uint256"
        }
      ],
      "stateMutability": "payable",
      "type": "function"
    },
    {
      "inputs": [
        {
          "internalType": "address",
          "name": "from",
          "type": "address"
        },
        {
          "internalType": "address",
          "name": "to",
          "type": "address"
        },
        {
          "internalType": "uint256",
          "name": "tokenId",
          "type": "uint256"
        }
      ],
      "name": "safeTransferFrom",
      "outputs": [],
      "stateMutability": "nonpayable",
      "type": "function"
    },
    {
      "inputs": [
        {
          "internalType": "address",
          "name": "from",
          "type": "address"
        },
        {
          "internalType": "address",
          "name": "to",
          "type": "address"
        },
        {
          "internalType": "uint256",
          "name": "tokenId",
          "type": "uint256"
        },
        {
          "internalType": "bytes",
          "name": "_data",
          "type": "bytes"
        }
      ],
      "name": "safeTransferFrom",
      "outputs": [],
      "stateMutability": "nonpayable",
      "type": "function"
    },
    {
      "inputs": [
        {
          "internalType": "uint256",
          "name": "tokenId",
          "type": "uint256"
        }
      ],
      "name": "sellWatch",
      "outputs": [],
      "stateMutability": "payable",
      "type": "function"
    },
    {
      "inputs": [
        {
          "internalType": "address",
          "name": "operator",
          "type": "address"
        },
        {
          "internalType": "bool",
          "name": "approved",
          "type": "bool"
        }
      ],
      "name": "setApprovalForAll",
      "outputs": [],
      "stateMutability": "nonpayable",
      "type": "function"
    },
    {
      "inputs": [
        {
          "internalType": "bytes4",
          "name": "interfaceId",
          "type": "bytes4"
        }
      ],
      "name": "supportsInterface",
      "outputs": [
        {
          "internalType": "bool",
          "name": "",
          "type": "bool"
        }
      ],
      "stateMutability": "view",
      "type": "function"
    },
    {
      "inputs": [],
      "name": "symbol",
      "outputs": [
        {
          "internalType": "string",
          "name": "",
          "type": "string"
        }
      ],
      "stateMutability": "view",
      "type": "function"
    },
    {
      "inputs": [
        {
          "internalType": "uint256",
          "name": "index",
          "type": "uint256"
        }
      ],
      "name": "tokenByIndex",
      "outputs": [
        {
          "internalType": "uint256",
          "name": "",
          "type": "uint256"
        }
      ],
      "stateMutability": "view",
      "type": "function"
    },
    {
      "inputs": [
        {
          "internalType": "address",
          "name": "owner",
          "type": "address"
        },
        {
          "internalType": "uint256",
          "name": "index",
          "type": "uint256"
        }
      ],
      "name": "tokenOfOwnerByIndex",
      "outputs": [
        {
          "internalType": "uint256",
          "name": "",
          "type": "uint256"
        }
      ],
      "stateMutability": "view",
      "type": "function"
    },
    {
      "inputs": [
        {
          "internalType": "uint256",
          "name": "tokenId",
          "type": "uint256"
        }
      ],
      "name": "tokenURI",
      "outputs": [
        {
          "internalType": "string",
          "name": "",
          "type": "string"
        }
      ],
      "stateMutability": "view",
      "type": "function"
    },
    {
      "inputs": [],
      "name": "totalSupply",
      "outputs": [
        {
          "internalType": "uint256",
          "name": "",
          "type": "uint256"
        }
      ],
      "stateMutability": "view",
      "type": "function"
    },
    {
      "inputs": [
        {
          "internalType": "address",
          "name": "from",
          "type": "address"
        },
        {
          "internalType": "address",
          "name": "to",
          "type": "address"
        },
        {
          "internalType": "uint256",
          "name": "tokenId",
          "type": "uint256"
        }
      ],
      "name": "transferFrom",
      "outputs": [],
      "stateMutability": "nonpayable",
      "type": "function"
    },
    {
      "inputs": [
        {
          "internalType": "address",
          "name": "newOwner",
          "type": "address"
        }
      ],
      "name": "transferOwnership",
      "outputs": [],
      "stateMutability": "nonpayable",
      "type": "function"
    }
  ],
  "bytecode": "0x60806040526000600d553480156200001657600080fd5b506040518060400160405280600981526020017f5761746368204e465400000000000000000000000000000000000000000000008152506040518060400160405280600481526020017f574e46540000000000000000000000000000000000000000000000000000000081525081600090805190602001906200009b929190620001ab565b508060019080519060200190620000b4929190620001ab565b505050620000d7620000cb620000dd60201b60201c565b620000e560201b60201c565b620002c0565b600033905090565b6000600b60009054906101000a900473ffffffffffffffffffffffffffffffffffffffff16905081600b60006101000a81548173ffffffffffffffffffffffffffffffffffffffff021916908373ffffffffffffffffffffffffffffffffffffffff1602179055508173ffffffffffffffffffffffffffffffffffffffff168173ffffffffffffffffffffffffffffffffffffffff167f8be0079c531659141344cd1fd0a4f28419497f9722a3daafe3b4186f6b6457e060405160405180910390a35050565b828054620001b9906200025b565b90600052602060002090601f016020900481019282620001dd576000855562000229565b82601f10620001f857805160ff191683800117855562000229565b8280016001018555821562000229579182015b82811115620002285782518255916020019190600101906200020b565b5b5090506200023891906200023c565b5090565b5b80821115620002575760008160009055506001016200023d565b5090565b600060028204905060018216806200027457607f821691505b602082108114156200028b576200028a62000291565b5b50919050565b7f4e487b7100000000000000000000000000000000000000000000000000000000600052602260045260246000fd5b61432080620002d06000396000f3fe6080604052600436106101815760003560e01c8063715018a6116100d1578063b88d4fde1161008a578063e92c5ca611610064578063e92c5ca61461059e578063e985e9c5146105ba578063f2fde38b146105f7578063ff6671e51461062057610181565b8063b88d4fde146104fb578063c0feb2c214610524578063c87b56dd1461056157610181565b8063715018a6146104115780638da5cb5b1461042857806395d89b4114610453578063a0e67e2b1461047e578063a22cb465146104a9578063a6e49154146104d257610181565b80632f745c591161013e5780634f6ccce7116101185780634f6ccce71461033e5780636352211e1461037b5780636a3fd177146103b857806370a08231146103d457610181565b80632f745c59146102a857806342842e0e146102e557806346b145e11461030e57610181565b806301ffc9a71461018657806306fdde03146101c3578063081812fc146101ee578063095ea7b31461022b57806318160ddd1461025457806323b872dd1461027f575b600080fd5b34801561019257600080fd5b506101ad60048036038101906101a89190612f05565b61064b565b6040516101ba91906134e9565b60405180910390f35b3480156101cf57600080fd5b506101d861065d565b6040516101e59190613504565b60405180910390f35b3480156101fa57600080fd5b5061021560048036038101906102109190612fab565b6106ef565b6040516102229190613482565b60405180910390f35b34801561023757600080fd5b50610252600480360381019061024d9190612ec9565b610774565b005b34801561026057600080fd5b5061026961088c565b6040516102769190613821565b60405180910390f35b34801561028b57600080fd5b506102a660048036038101906102a19190612dc3565b610899565b005b3480156102b457600080fd5b506102cf60048036038101906102ca9190612ec9565b6108f9565b6040516102dc9190613821565b60405180910390f35b3480156102f157600080fd5b5061030c60048036038101906103079190612dc3565b61099e565b005b61032860048036038101906103239190612f57565b6109be565b6040516103359190613821565b60405180910390f35b34801561034a57600080fd5b5061036560048036038101906103609190612fab565b6109ff565b6040516103729190613821565b60405180910390f35b34801561038757600080fd5b506103a2600480360381019061039d9190612fab565b610a96565b6040516103af9190613482565b60405180910390f35b6103d260048036038101906103cd9190612fab565b610b48565b005b3480156103e057600080fd5b506103fb60048036038101906103f69190612d5e565b610d12565b6040516104089190613821565b60405180910390f35b34801561041d57600080fd5b50610426610dca565b005b34801561043457600080fd5b5061043d610e52565b60405161044a9190613482565b60405180910390f35b34801561045f57600080fd5b50610468610e7c565b6040516104759190613504565b60405180910390f35b34801561048a57600080fd5b50610493610f0e565b6040516104a09190613821565b60405180910390f35b3480156104b557600080fd5b506104d060048036038101906104cb9190612e8d565b610f18565b005b3480156104de57600080fd5b506104f960048036038101906104f49190612dc3565b610f2e565b005b34801561050757600080fd5b50610522600480360381019061051d9190612e12565b610fab565b005b34801561053057600080fd5b5061054b60048036038101906105469190612fab565b61100d565b6040516105589190613806565b60405180910390f35b34801561056d57600080fd5b5061058860048036038101906105839190612fab565b611115565b6040516105959190613504565b60405180910390f35b6105b860048036038101906105b39190612fab565b611127565b005b3480156105c657600080fd5b506105e160048036038101906105dc9190612d87565b6112b2565b6040516105ee91906134e9565b60405180910390f35b34801561060357600080fd5b5061061e60048036038101906106199190612d5e565b611346565b005b34801561062c57600080fd5b5061063561143e565b6040516106429190613821565b60405180910390f35b60006106568261144f565b9050919050565b60606000805461066c90613a89565b80601f016020809104026020016040519081016040528092919081815260200182805461069890613a89565b80156106e55780601f106106ba576101008083540402835291602001916106e5565b820191906000526020600020905b8154815290600101906020018083116106c857829003601f168201915b5050505050905090565b60006106fa826114c9565b610739576040517f08c379a000000000000000000000000000000000000000000000000000000000815260040161073090613726565b60405180910390fd5b6004600083815260200190815260200160002060009054906101000a900473ffffffffffffffffffffffffffffffffffffffff169050919050565b600061077f82610a96565b90508073ffffffffffffffffffffffffffffffffffffffff168373ffffffffffffffffffffffffffffffffffffffff1614156107f0576040517f08c379a00000000000000000000000000000000000000000000000000000000081526004016107e790613786565b60405180910390fd5b8073ffffffffffffffffffffffffffffffffffffffff1661080f611535565b73ffffffffffffffffffffffffffffffffffffffff16148061083e575061083d81610838611535565b6112b2565b5b61087d576040517f08c379a000000000000000000000000000000000000000000000000000000000815260040161087490613626565b60405180910390fd5b610887838361153d565b505050565b6000600880549050905090565b6108aa6108a4611535565b826115f6565b6108e9576040517f08c379a00000000000000000000000000000000000000000000000000000000081526004016108e0906137a6565b60405180910390fd5b6108f48383836116d4565b505050565b600061090483610d12565b8210610945576040517f08c379a000000000000000000000000000000000000000000000000000000000815260040161093c90613526565b60405180910390fd5b600660008473ffffffffffffffffffffffffffffffffffffffff1673ffffffffffffffffffffffffffffffffffffffff168152602001908152602001600020600083815260200190815260200160002054905092915050565b6109b983838360405180602001604052806000815250610fab565b505050565b6000806109cb600c61193b565b90506109d7600c611949565b6109e1338261195f565b6109eb8185611b39565b6109f58184611bad565b8091505092915050565b6000610a0961088c565b8210610a4a576040517f08c379a0000000000000000000000000000000000000000000000000000000008152600401610a41906137c6565b60405180910390fd5b60088281548110610a84577f4e487b7100000000000000000000000000000000000000000000000000000000600052603260045260246000fd5b90600052602060002001549050919050565b6000806002600084815260200190815260200160002060009054906101000a900473ffffffffffffffffffffffffffffffffffffffff169050600073ffffffffffffffffffffffffffffffffffffffff168173ffffffffffffffffffffffffffffffffffffffff161415610b3f576040517f08c379a0000000000000000000000000000000000000000000000000000000008152600401610b3690613666565b60405180910390fd5b80915050919050565b6000600e60008381526020019081526020016000206003015490506000600e600084815260200190815260200160002060010160009054906101000a900473ffffffffffffffffffffffffffffffffffffffff16905081341015610be1576040517f08c379a0000000000000000000000000000000000000000000000000000000008152600401610bd8906136a6565b60405180910390fd5b33600e600085815260200190815260200160002060020160006101000a81548173ffffffffffffffffffffffffffffffffffffffff021916908373ffffffffffffffffffffffffffffffffffffffff1602179055506001600e600085815260200190815260200160002060040160006101000a81548160ff0219169083151502179055506000600e600085815260200190815260200160002060010160006101000a81548173ffffffffffffffffffffffffffffffffffffffff021916908373ffffffffffffffffffffffffffffffffffffffff160217905550610cc63033856116d4565b8073ffffffffffffffffffffffffffffffffffffffff166108fc349081150290604051600060405180830381858888f19350505050158015610d0c573d6000803e3d6000fd5b50505050565b60008073ffffffffffffffffffffffffffffffffffffffff168273ffffffffffffffffffffffffffffffffffffffff161415610d83576040517f08c379a0000000000000000000000000000000000000000000000000000000008152600401610d7a90613646565b60405180910390fd5b600360008373ffffffffffffffffffffffffffffffffffffffff1673ffffffffffffffffffffffffffffffffffffffff168152602001908152602001600020549050919050565b610dd2611535565b73ffffffffffffffffffffffffffffffffffffffff16610df0610e52565b73ffffffffffffffffffffffffffffffffffffffff1614610e46576040517f08c379a0000000000000000000000000000000000000000000000000000000008152600401610e3d90613746565b60405180910390fd5b610e506000611d2d565b565b6000600b60009054906101000a900473ffffffffffffffffffffffffffffffffffffffff16905090565b606060018054610e8b90613a89565b80601f0160208091040260200160405190810160405280929190818152602001828054610eb790613a89565b8015610f045780601f10610ed957610100808354040283529160200191610f04565b820191906000526020600020905b815481529060010190602001808311610ee757829003601f168201915b5050505050905090565b6000600d54905090565b610f2a610f23611535565b8383611df3565b5050565b610f398383836116d4565b81600e600083815260200190815260200160002060020160006101000a81548173ffffffffffffffffffffffffffffffffffffffff021916908373ffffffffffffffffffffffffffffffffffffffff160217905550600d6000815480929190610fa190613aec565b9190505550505050565b610fbc610fb6611535565b836115f6565b610ffb576040517f08c379a0000000000000000000000000000000000000000000000000000000008152600401610ff2906137a6565b60405180910390fd5b61100784848484611f60565b50505050565b611015612b25565b600e60008381526020019081526020016000206040518060a0016040529081600082015481526020016001820160009054906101000a900473ffffffffffffffffffffffffffffffffffffffff1673ffffffffffffffffffffffffffffffffffffffff1673ffffffffffffffffffffffffffffffffffffffff1681526020016002820160009054906101000a900473ffffffffffffffffffffffffffffffffffffffff1673ffffffffffffffffffffffffffffffffffffffff1673ffffffffffffffffffffffffffffffffffffffff168152602001600382015481526020016004820160009054906101000a900460ff1615151515815250509050919050565b606061112082611fbc565b9050919050565b3373ffffffffffffffffffffffffffffffffffffffff16600e600083815260200190815260200160002060020160009054906101000a900473ffffffffffffffffffffffffffffffffffffffff1673ffffffffffffffffffffffffffffffffffffffff16146111cb576040517f08c379a00000000000000000000000000000000000000000000000000000000081526004016111c290613706565b60405180910390fd5b6000600e600083815260200190815260200160002060040160006101000a81548160ff02191690831515021790555033600e600083815260200190815260200160002060010160006101000a81548173ffffffffffffffffffffffffffffffffffffffff021916908373ffffffffffffffffffffffffffffffffffffffff16021790555030600e600083815260200190815260200160002060020160006101000a81548173ffffffffffffffffffffffffffffffffffffffff021916908373ffffffffffffffffffffffffffffffffffffffff1602179055506112af3330836116d4565b50565b6000600560008473ffffffffffffffffffffffffffffffffffffffff1673ffffffffffffffffffffffffffffffffffffffff16815260200190815260200160002060008373ffffffffffffffffffffffffffffffffffffffff1673ffffffffffffffffffffffffffffffffffffffff16815260200190815260200160002060009054906101000a900460ff16905092915050565b61134e611535565b73ffffffffffffffffffffffffffffffffffffffff1661136c610e52565b73ffffffffffffffffffffffffffffffffffffffff16146113c2576040517f08c379a00000000000000000000000000000000000000000000000000000000081526004016113b990613746565b60405180910390fd5b600073ffffffffffffffffffffffffffffffffffffffff168173ffffffffffffffffffffffffffffffffffffffff161415611432576040517f08c379a000000000000000000000000000000000000000000000000000000000815260040161142990613566565b60405180910390fd5b61143b81611d2d565b50565b600061144a600c61193b565b905090565b60007f780e9d63000000000000000000000000000000000000000000000000000000007bffffffffffffffffffffffffffffffffffffffffffffffffffffffff1916827bffffffffffffffffffffffffffffffffffffffffffffffffffffffff191614806114c257506114c18261210e565b5b9050919050565b60008073ffffffffffffffffffffffffffffffffffffffff166002600084815260200190815260200160002060009054906101000a900473ffffffffffffffffffffffffffffffffffffffff1673ffffffffffffffffffffffffffffffffffffffff1614159050919050565b600033905090565b816004600083815260200190815260200160002060006101000a81548173ffffffffffffffffffffffffffffffffffffffff021916908373ffffffffffffffffffffffffffffffffffffffff160217905550808273ffffffffffffffffffffffffffffffffffffffff166115b083610a96565b73ffffffffffffffffffffffffffffffffffffffff167f8c5be1e5ebec7d5bd14f71427d1e84f3dd0314c0f7b2291e5b200ac8c7c3b92560405160405180910390a45050565b6000611601826114c9565b611640576040517f08c379a000000000000000000000000000000000000000000000000000000000815260040161163790613606565b60405180910390fd5b600061164b83610a96565b90508073ffffffffffffffffffffffffffffffffffffffff168473ffffffffffffffffffffffffffffffffffffffff16148061168d575061168c81856112b2565b5b806116cb57508373ffffffffffffffffffffffffffffffffffffffff166116b3846106ef565b73ffffffffffffffffffffffffffffffffffffffff16145b91505092915050565b8273ffffffffffffffffffffffffffffffffffffffff166116f482610a96565b73ffffffffffffffffffffffffffffffffffffffff161461174a576040517f08c379a000000000000000000000000000000000000000000000000000000000815260040161174190613586565b60405180910390fd5b600073ffffffffffffffffffffffffffffffffffffffff168273ffffffffffffffffffffffffffffffffffffffff1614156117ba576040517f08c379a00000000000000000000000000000000000000000000000000000000081526004016117b1906135c6565b60405180910390fd5b6117c58383836121f0565b6117d060008261153d565b6001600360008573ffffffffffffffffffffffffffffffffffffffff1673ffffffffffffffffffffffffffffffffffffffff1681526020019081526020016000206000828254611820919061398d565b925050819055506001600360008473ffffffffffffffffffffffffffffffffffffffff1673ffffffffffffffffffffffffffffffffffffffff16815260200190815260200160002060008282546118779190613906565b92505081905550816002600083815260200190815260200160002060006101000a81548173ffffffffffffffffffffffffffffffffffffffff021916908373ffffffffffffffffffffffffffffffffffffffff160217905550808273ffffffffffffffffffffffffffffffffffffffff168473ffffffffffffffffffffffffffffffffffffffff167fddf252ad1be2c89b69c2b068fc378daa952ba7f163c4a11628f55a4df523b3ef60405160405180910390a4611936838383612200565b505050565b600081600001549050919050565b6001816000016000828254019250508190555050565b600073ffffffffffffffffffffffffffffffffffffffff168273ffffffffffffffffffffffffffffffffffffffff1614156119cf576040517f08c379a00000000000000000000000000000000000000000000000000000000081526004016119c6906136c6565b60405180910390fd5b6119d8816114c9565b15611a18576040517f08c379a0000000000000000000000000000000000000000000000000000000008152600401611a0f906135a6565b60405180910390fd5b611a24600083836121f0565b6001600360008473ffffffffffffffffffffffffffffffffffffffff1673ffffffffffffffffffffffffffffffffffffffff1681526020019081526020016000206000828254611a749190613906565b92505081905550816002600083815260200190815260200160002060006101000a81548173ffffffffffffffffffffffffffffffffffffffff021916908373ffffffffffffffffffffffffffffffffffffffff160217905550808273ffffffffffffffffffffffffffffffffffffffff16600073ffffffffffffffffffffffffffffffffffffffff167fddf252ad1be2c89b69c2b068fc378daa952ba7f163c4a11628f55a4df523b3ef60405160405180910390a4611b3560008383612200565b5050565b611b42826114c9565b611b81576040517f08c379a0000000000000000000000000000000000000000000000000000000008152600401611b7890613686565b60405180910390fd5b80600a60008481526020019081526020016000209080519060200190611ba8929190612b82565b505050565b60008111611bf0576040517f08c379a0000000000000000000000000000000000000000000000000000000008152600401611be7906137e6565b60405180910390fd5b6040518060a001604052808381526020013373ffffffffffffffffffffffffffffffffffffffff1681526020013073ffffffffffffffffffffffffffffffffffffffff16815260200182815260200160001515815250600e60008481526020019081526020016000206000820151816000015560208201518160010160006101000a81548173ffffffffffffffffffffffffffffffffffffffff021916908373ffffffffffffffffffffffffffffffffffffffff16021790555060408201518160020160006101000a81548173ffffffffffffffffffffffffffffffffffffffff021916908373ffffffffffffffffffffffffffffffffffffffff1602179055506060820151816003015560808201518160040160006101000a81548160ff021916908315150217905550905050611d293330846116d4565b5050565b6000600b60009054906101000a900473ffffffffffffffffffffffffffffffffffffffff16905081600b60006101000a81548173ffffffffffffffffffffffffffffffffffffffff021916908373ffffffffffffffffffffffffffffffffffffffff1602179055508173ffffffffffffffffffffffffffffffffffffffff168173ffffffffffffffffffffffffffffffffffffffff167f8be0079c531659141344cd1fd0a4f28419497f9722a3daafe3b4186f6b6457e060405160405180910390a35050565b8173ffffffffffffffffffffffffffffffffffffffff168373ffffffffffffffffffffffffffffffffffffffff161415611e62576040517f08c379a0000000000000000000000000000000000000000000000000000000008152600401611e59906135e6565b60405180910390fd5b80600560008573ffffffffffffffffffffffffffffffffffffffff1673ffffffffffffffffffffffffffffffffffffffff16815260200190815260200160002060008473ffffffffffffffffffffffffffffffffffffffff1673ffffffffffffffffffffffffffffffffffffffff16815260200190815260200160002060006101000a81548160ff0219169083151502179055508173ffffffffffffffffffffffffffffffffffffffff168373ffffffffffffffffffffffffffffffffffffffff167f17307eab39ab6107e8899845ad3d59bd9653f200f220920489ca2b5937696c3183604051611f5391906134e9565b60405180910390a3505050565b611f6b8484846116d4565b611f7784848484612205565b611fb6576040517f08c379a0000000000000000000000000000000000000000000000000000000008152600401611fad90613546565b60405180910390fd5b50505050565b6060611fc7826114c9565b612006576040517f08c379a0000000000000000000000000000000000000000000000000000000008152600401611ffd906136e6565b60405180910390fd5b6000600a6000848152602001908152602001600020805461202690613a89565b80601f016020809104026020016040519081016040528092919081815260200182805461205290613a89565b801561209f5780601f106120745761010080835404028352916020019161209f565b820191906000526020600020905b81548152906001019060200180831161208257829003601f168201915b5050505050905060006120b061239c565b90506000815114156120c6578192505050612109565b6000825111156120fb5780826040516020016120e392919061345e565b60405160208183030381529060405292505050612109565b612104846123b3565b925050505b919050565b60007f80ac58cd000000000000000000000000000000000000000000000000000000007bffffffffffffffffffffffffffffffffffffffffffffffffffffffff1916827bffffffffffffffffffffffffffffffffffffffffffffffffffffffff191614806121d957507f5b5e139f000000000000000000000000000000000000000000000000000000007bffffffffffffffffffffffffffffffffffffffffffffffffffffffff1916827bffffffffffffffffffffffffffffffffffffffffffffffffffffffff1916145b806121e957506121e88261245a565b5b9050919050565b6121fb8383836124c4565b505050565b505050565b60006122268473ffffffffffffffffffffffffffffffffffffffff166125d8565b1561238f578373ffffffffffffffffffffffffffffffffffffffff1663150b7a0261224f611535565b8786866040518563ffffffff1660e01b8152600401612271949392919061349d565b602060405180830381600087803b15801561228b57600080fd5b505af19250505080156122bc57506040513d601f19601f820116820180604052508101906122b99190612f2e565b60015b61233f573d80600081146122ec576040519150601f19603f3d011682016040523d82523d6000602084013e6122f1565b606091505b50600081511415612337576040517f08c379a000000000000000000000000000000000000000000000000000000000815260040161232e90613546565b60405180910390fd5b805181602001fd5b63150b7a0260e01b7bffffffffffffffffffffffffffffffffffffffffffffffffffffffff1916817bffffffffffffffffffffffffffffffffffffffffffffffffffffffff191614915050612394565b600190505b949350505050565b606060405180602001604052806000815250905090565b60606123be826114c9565b6123fd576040517f08c379a00000000000000000000000000000000000000000000000000000000081526004016123f490613766565b60405180910390fd5b600061240761239c565b905060008151116124275760405180602001604052806000815250612452565b80612431846125fb565b60405160200161244292919061345e565b6040516020818303038152906040525b915050919050565b60007f01ffc9a7000000000000000000000000000000000000000000000000000000007bffffffffffffffffffffffffffffffffffffffffffffffffffffffff1916827bffffffffffffffffffffffffffffffffffffffffffffffffffffffff1916149050919050565b6124cf8383836127a8565b600073ffffffffffffffffffffffffffffffffffffffff168373ffffffffffffffffffffffffffffffffffffffff1614156125125761250d816127ad565b612551565b8173ffffffffffffffffffffffffffffffffffffffff168373ffffffffffffffffffffffffffffffffffffffff16146125505761254f83826127f6565b5b5b600073ffffffffffffffffffffffffffffffffffffffff168273ffffffffffffffffffffffffffffffffffffffff1614156125945761258f81612963565b6125d3565b8273ffffffffffffffffffffffffffffffffffffffff168273ffffffffffffffffffffffffffffffffffffffff16146125d2576125d18282612aa6565b5b5b505050565b6000808273ffffffffffffffffffffffffffffffffffffffff163b119050919050565b60606000821415612643576040518060400160405280600181526020017f300000000000000000000000000000000000000000000000000000000000000081525090506127a3565b600082905060005b6000821461267557808061265e90613aec565b915050600a8261266e919061395c565b915061264b565b60008167ffffffffffffffff8111156126b7577f4e487b7100000000000000000000000000000000000000000000000000000000600052604160045260246000fd5b6040519080825280601f01601f1916602001820160405280156126e95781602001600182028036833780820191505090505b5090505b6000851461279c57600182612702919061398d565b9150600a856127119190613b35565b603061271d9190613906565b60f81b818381518110612759577f4e487b7100000000000000000000000000000000000000000000000000000000600052603260045260246000fd5b60200101907effffffffffffffffffffffffffffffffffffffffffffffffffffffffffffff1916908160001a905350600a85612795919061395c565b94506126ed565b8093505050505b919050565b505050565b6008805490506009600083815260200190815260200160002081905550600881908060018154018082558091505060019003906000526020600020016000909190919091505550565b6000600161280384610d12565b61280d919061398d565b90506000600760008481526020019081526020016000205490508181146128f2576000600660008673ffffffffffffffffffffffffffffffffffffffff1673ffffffffffffffffffffffffffffffffffffffff168152602001908152602001600020600084815260200190815260200160002054905080600660008773ffffffffffffffffffffffffffffffffffffffff1673ffffffffffffffffffffffffffffffffffffffff168152602001908152602001600020600084815260200190815260200160002081905550816007600083815260200190815260200160002081905550505b6007600084815260200190815260200160002060009055600660008573ffffffffffffffffffffffffffffffffffffffff1673ffffffffffffffffffffffffffffffffffffffff16815260200190815260200160002060008381526020019081526020016000206000905550505050565b60006001600880549050612977919061398d565b90506000600960008481526020019081526020016000205490506000600883815481106129cd577f4e487b7100000000000000000000000000000000000000000000000000000000600052603260045260246000fd5b906000526020600020015490508060088381548110612a15577f4e487b7100000000000000000000000000000000000000000000000000000000600052603260045260246000fd5b906000526020600020018190555081600960008381526020019081526020016000208190555060096000858152602001908152602001600020600090556008805480612a8a577f4e487b7100000000000000000000000000000000000000000000000000000000600052603160045260246000fd5b6001900381819060005260206000200160009055905550505050565b6000612ab183610d12565b905081600660008573ffffffffffffffffffffffffffffffffffffffff1673ffffffffffffffffffffffffffffffffffffffff168152602001908152602001600020600083815260200190815260200160002081905550806007600084815260200190815260200160002081905550505050565b6040518060a0016040528060008152602001600073ffffffffffffffffffffffffffffffffffffffff168152602001600073ffffffffffffffffffffffffffffffffffffffff168152602001600081526020016000151581525090565b828054612b8e90613a89565b90600052602060002090601f016020900481019282612bb05760008555612bf7565b82601f10612bc957805160ff1916838001178555612bf7565b82800160010185558215612bf7579182015b82811115612bf6578251825591602001919060010190612bdb565b5b509050612c049190612c08565b5090565b5b80821115612c21576000816000905550600101612c09565b5090565b6000612c38612c3384613861565b61383c565b905082815260208101848484011115612c5057600080fd5b612c5b848285613a47565b509392505050565b6000612c76612c7184613892565b61383c565b905082815260208101848484011115612c8e57600080fd5b612c99848285613a47565b509392505050565b600081359050612cb08161428e565b92915050565b600081359050612cc5816142a5565b92915050565b600081359050612cda816142bc565b92915050565b600081519050612cef816142bc565b92915050565b600082601f830112612d0657600080fd5b8135612d16848260208601612c25565b91505092915050565b600082601f830112612d3057600080fd5b8135612d40848260208601612c63565b91505092915050565b600081359050612d58816142d3565b92915050565b600060208284031215612d7057600080fd5b6000612d7e84828501612ca1565b91505092915050565b60008060408385031215612d9a57600080fd5b6000612da885828601612ca1565b9250506020612db985828601612ca1565b9150509250929050565b600080600060608486031215612dd857600080fd5b6000612de686828701612ca1565b9350506020612df786828701612ca1565b9250506040612e0886828701612d49565b9150509250925092565b60008060008060808587031215612e2857600080fd5b6000612e3687828801612ca1565b9450506020612e4787828801612ca1565b9350506040612e5887828801612d49565b925050606085013567ffffffffffffffff811115612e7557600080fd5b612e8187828801612cf5565b91505092959194509250565b60008060408385031215612ea057600080fd5b6000612eae85828601612ca1565b9250506020612ebf85828601612cb6565b9150509250929050565b60008060408385031215612edc57600080fd5b6000612eea85828601612ca1565b9250506020612efb85828601612d49565b9150509250929050565b600060208284031215612f1757600080fd5b6000612f2584828501612ccb565b91505092915050565b600060208284031215612f4057600080fd5b6000612f4e84828501612ce0565b91505092915050565b60008060408385031215612f6a57600080fd5b600083013567ffffffffffffffff811115612f8457600080fd5b612f9085828601612d1f565b9250506020612fa185828601612d49565b9150509250929050565b600060208284031215612fbd57600080fd5b6000612fcb84828501612d49565b91505092915050565b612fdd816139d3565b82525050565b612fec816139c1565b82525050565b612ffb816139e5565b82525050565b61300a816139e5565b82525050565b600061301b826138c3565b61302581856138d9565b9350613035818560208601613a56565b61303e81613c22565b840191505092915050565b6000613054826138ce565b61305e81856138ea565b935061306e818560208601613a56565b61307781613c22565b840191505092915050565b600061308d826138ce565b61309781856138fb565b93506130a7818560208601613a56565b80840191505092915050565b60006130c0602b836138ea565b91506130cb82613c33565b604082019050919050565b60006130e36032836138ea565b91506130ee82613c82565b604082019050919050565b60006131066026836138ea565b915061311182613cd1565b604082019050919050565b60006131296025836138ea565b915061313482613d20565b604082019050919050565b600061314c601c836138ea565b915061315782613d6f565b602082019050919050565b600061316f6024836138ea565b915061317a82613d98565b604082019050919050565b60006131926019836138ea565b915061319d82613de7565b602082019050919050565b60006131b5602c836138ea565b91506131c082613e10565b604082019050919050565b60006131d86038836138ea565b91506131e382613e5f565b604082019050919050565b60006131fb602a836138ea565b915061320682613eae565b604082019050919050565b600061321e6029836138ea565b915061322982613efd565b604082019050919050565b6000613241602e836138ea565b915061324c82613f4c565b604082019050919050565b60006132646040836138ea565b915061326f82613f9b565b604082019050919050565b60006132876020836138ea565b915061329282613fea565b602082019050919050565b60006132aa6031836138ea565b91506132b582614013565b604082019050919050565b60006132cd602a836138ea565b91506132d882614062565b604082019050919050565b60006132f0602c836138ea565b91506132fb826140b1565b604082019050919050565b60006133136020836138ea565b915061331e82614100565b602082019050919050565b6000613336602f836138ea565b915061334182614129565b604082019050919050565b60006133596021836138ea565b915061336482614178565b604082019050919050565b600061337c6031836138ea565b9150613387826141c7565b604082019050919050565b600061339f602c836138ea565b91506133aa82614216565b604082019050919050565b60006133c2601c836138ea565b91506133cd82614265565b602082019050919050565b60a0820160008201516133ee6000850182613440565b5060208201516134016020850182612fd4565b5060408201516134146040850182612fd4565b5060608201516134276060850182613440565b50608082015161343a6080850182612ff2565b50505050565b61344981613a3d565b82525050565b61345881613a3d565b82525050565b600061346a8285613082565b91506134768284613082565b91508190509392505050565b60006020820190506134976000830184612fe3565b92915050565b60006080820190506134b26000830187612fe3565b6134bf6020830186612fe3565b6134cc604083018561344f565b81810360608301526134de8184613010565b905095945050505050565b60006020820190506134fe6000830184613001565b92915050565b6000602082019050818103600083015261351e8184613049565b905092915050565b6000602082019050818103600083015261353f816130b3565b9050919050565b6000602082019050818103600083015261355f816130d6565b9050919050565b6000602082019050818103600083015261357f816130f9565b9050919050565b6000602082019050818103600083015261359f8161311c565b9050919050565b600060208201905081810360008301526135bf8161313f565b9050919050565b600060208201905081810360008301526135df81613162565b9050919050565b600060208201905081810360008301526135ff81613185565b9050919050565b6000602082019050818103600083015261361f816131a8565b9050919050565b6000602082019050818103600083015261363f816131cb565b9050919050565b6000602082019050818103600083015261365f816131ee565b9050919050565b6000602082019050818103600083015261367f81613211565b9050919050565b6000602082019050818103600083015261369f81613234565b9050919050565b600060208201905081810360008301526136bf81613257565b9050919050565b600060208201905081810360008301526136df8161327a565b9050919050565b600060208201905081810360008301526136ff8161329d565b9050919050565b6000602082019050818103600083015261371f816132c0565b9050919050565b6000602082019050818103600083015261373f816132e3565b9050919050565b6000602082019050818103600083015261375f81613306565b9050919050565b6000602082019050818103600083015261377f81613329565b9050919050565b6000602082019050818103600083015261379f8161334c565b9050919050565b600060208201905081810360008301526137bf8161336f565b9050919050565b600060208201905081810360008301526137df81613392565b9050919050565b600060208201905081810360008301526137ff816133b5565b9050919050565b600060a08201905061381b60008301846133d8565b92915050565b6000602082019050613836600083018461344f565b92915050565b6000613846613857565b90506138528282613abb565b919050565b6000604051905090565b600067ffffffffffffffff82111561387c5761387b613bf3565b5b61388582613c22565b9050602081019050919050565b600067ffffffffffffffff8211156138ad576138ac613bf3565b5b6138b682613c22565b9050602081019050919050565b600081519050919050565b600081519050919050565b600082825260208201905092915050565b600082825260208201905092915050565b600081905092915050565b600061391182613a3d565b915061391c83613a3d565b9250827fffffffffffffffffffffffffffffffffffffffffffffffffffffffffffffffff0382111561395157613950613b66565b5b828201905092915050565b600061396782613a3d565b915061397283613a3d565b92508261398257613981613b95565b5b828204905092915050565b600061399882613a3d565b91506139a383613a3d565b9250828210156139b6576139b5613b66565b5b828203905092915050565b60006139cc82613a1d565b9050919050565b60006139de82613a1d565b9050919050565b60008115159050919050565b60007fffffffff0000000000000000000000000000000000000000000000000000000082169050919050565b600073ffffffffffffffffffffffffffffffffffffffff82169050919050565b6000819050919050565b82818337600083830152505050565b60005b83811015613a74578082015181840152602081019050613a59565b83811115613a83576000848401525b50505050565b60006002820490506001821680613aa157607f821691505b60208210811415613ab557613ab4613bc4565b5b50919050565b613ac482613c22565b810181811067ffffffffffffffff82111715613ae357613ae2613bf3565b5b80604052505050565b6000613af782613a3d565b91507fffffffffffffffffffffffffffffffffffffffffffffffffffffffffffffffff821415613b2a57613b29613b66565b5b600182019050919050565b6000613b4082613a3d565b9150613b4b83613a3d565b925082613b5b57613b5a613b95565b5b828206905092915050565b7f4e487b7100000000000000000000000000000000000000000000000000000000600052601160045260246000fd5b7f4e487b7100000000000000000000000000000000000000000000000000000000600052601260045260246000fd5b7f4e487b7100000000000000000000000000000000000000000000000000000000600052602260045260246000fd5b7f4e487b7100000000000000000000000000000000000000000000000000000000600052604160045260246000fd5b6000601f19601f8301169050919050565b7f455243373231456e756d657261626c653a206f776e657220696e646578206f7560008201527f74206f6620626f756e6473000000000000000000000000000000000000000000602082015250565b7f4552433732313a207472616e7366657220746f206e6f6e20455243373231526560008201527f63656976657220696d706c656d656e7465720000000000000000000000000000602082015250565b7f4f776e61626c653a206e6577206f776e657220697320746865207a65726f206160008201527f6464726573730000000000000000000000000000000000000000000000000000602082015250565b7f4552433732313a207472616e736665722066726f6d20696e636f72726563742060008201527f6f776e6572000000000000000000000000000000000000000000000000000000602082015250565b7f4552433732313a20746f6b656e20616c7265616479206d696e74656400000000600082015250565b7f4552433732313a207472616e7366657220746f20746865207a65726f2061646460008201527f7265737300000000000000000000000000000000000000000000000000000000602082015250565b7f4552433732313a20617070726f766520746f2063616c6c657200000000000000600082015250565b7f4552433732313a206f70657261746f7220717565727920666f72206e6f6e657860008201527f697374656e7420746f6b656e0000000000000000000000000000000000000000602082015250565b7f4552433732313a20617070726f76652063616c6c6572206973206e6f74206f7760008201527f6e6572206e6f7220617070726f76656420666f7220616c6c0000000000000000602082015250565b7f4552433732313a2062616c616e636520717565727920666f7220746865207a6560008201527f726f206164647265737300000000000000000000000000000000000000000000602082015250565b7f4552433732313a206f776e657220717565727920666f72206e6f6e657869737460008201527f656e7420746f6b656e0000000000000000000000000000000000000000000000602082015250565b7f45524337323155524953746f726167653a2055524920736574206f66206e6f6e60008201527f6578697374656e7420746f6b656e000000000000000000000000000000000000602082015250565b7f506c65617365207375626d6974207468652061736b696e67207072696365206960008201527f6e206f7264657220746f20636f6d706c65746520746865207075726368617365602082015250565b7f4552433732313a206d696e7420746f20746865207a65726f2061646472657373600082015250565b7f45524337323155524953746f726167653a2055524920717565727920666f722060008201527f6e6f6e6578697374656e7420746f6b656e000000000000000000000000000000602082015250565b7f4f6e6c79206974656d206f776e65722063616e20706572666f726d207468697360008201527f206f7065726174696f6e00000000000000000000000000000000000000000000602082015250565b7f4552433732313a20617070726f76656420717565727920666f72206e6f6e657860008201527f697374656e7420746f6b656e0000000000000000000000000000000000000000602082015250565b7f4f776e61626c653a2063616c6c6572206973206e6f7420746865206f776e6572600082015250565b7f4552433732314d657461646174613a2055524920717565727920666f72206e6f60008201527f6e6578697374656e7420746f6b656e0000000000000000000000000000000000602082015250565b7f4552433732313a20617070726f76616c20746f2063757272656e74206f776e6560008201527f7200000000000000000000000000000000000000000000000000000000000000602082015250565b7f4552433732313a207472616e736665722063616c6c6572206973206e6f74206f60008201527f776e6572206e6f7220617070726f766564000000000000000000000000000000602082015250565b7f455243373231456e756d657261626c653a20676c6f62616c20696e646578206f60008201527f7574206f6620626f756e64730000000000000000000000000000000000000000602082015250565b7f5072696365206d757374206265206174206c6561737420312077656900000000600082015250565b614297816139c1565b81146142a257600080fd5b50565b6142ae816139e5565b81146142b957600080fd5b50565b6142c5816139f1565b81146142d057600080fd5b50565b6142dc81613a3d565b81146142e757600080fd5b5056fea26469706673582212201ff04c6fc8e8cbd53ce3943ddd5b07561f6db5433cd19254026e0f8767b8196164736f6c63430008040033",
  "linkReferences": {},
  "deployedLinkReferences": {}
}